{
  "_format": "hh-sol-artifact-1",
  "contractName": "CarbonMarketplace",
  "sourceName": "smart-contracts/contracts/CarbonMarketplace.sol",
  "abi": [
    {
      "inputs": [
        {
          "internalType": "address",
          "name": "_token",
          "type": "address"
        }
      ],
      "stateMutability": "nonpayable",
      "type": "constructor"
    },
    {
      "anonymous": false,
      "inputs": [
        {
          "indexed": false,
          "internalType": "uint256",
          "name": "id",
          "type": "uint256"
        },
        {
          "indexed": false,
          "internalType": "address",
          "name": "buyer",
          "type": "address"
        },
        {
          "indexed": false,
          "internalType": "uint256",
          "name": "amount",
          "type": "uint256"
        },
        {
          "indexed": false,
          "internalType": "uint256",
          "name": "price",
          "type": "uint256"
        }
      ],
      "name": "CreditsPurchased",
      "type": "event"
    },
    {
      "anonymous": false,
      "inputs": [
        {
          "indexed": false,
          "internalType": "uint256",
          "name": "id",
          "type": "uint256"
        },
        {
          "indexed": false,
          "internalType": "address",
          "name": "seller",
          "type": "address"
        }
      ],
      "name": "ListingCancelled",
      "type": "event"
    },
    {
      "anonymous": false,
      "inputs": [
        {
          "indexed": false,
          "internalType": "uint256",
          "name": "id",
          "type": "uint256"
        },
        {
          "indexed": false,
          "internalType": "address",
          "name": "seller",
          "type": "address"
        },
        {
          "indexed": false,
          "internalType": "uint256",
          "name": "amount",
          "type": "uint256"
        },
        {
          "indexed": false,
          "internalType": "uint256",
          "name": "price",
          "type": "uint256"
        }
      ],
      "name": "ListingCreated",
      "type": "event"
    },
    {
      "inputs": [],
      "name": "admin",
      "outputs": [
        {
          "internalType": "address",
          "name": "",
          "type": "address"
        }
      ],
      "stateMutability": "view",
      "type": "function"
    },
    {
      "inputs": [
        {
          "internalType": "uint256",
          "name": "listingId",
          "type": "uint256"
        }
      ],
      "name": "buyCredits",
      "outputs": [],
      "stateMutability": "payable",
      "type": "function"
    },
    {
      "inputs": [
        {
          "internalType": "uint256",
          "name": "listingId",
          "type": "uint256"
        }
      ],
      "name": "cancelListing",
      "outputs": [],
      "stateMutability": "nonpayable",
      "type": "function"
    },
    {
      "inputs": [],
      "name": "carbonToken",
      "outputs": [
        {
          "internalType": "contract CarbonCreditToken",
          "name": "",
          "type": "address"
        }
      ],
      "stateMutability": "view",
      "type": "function"
    },
    {
      "inputs": [],
      "name": "getAllListings",
      "outputs": [
        {
          "components": [
            {
              "internalType": "uint256",
              "name": "id",
              "type": "uint256"
            },
            {
              "internalType": "address",
              "name": "seller",
              "type": "address"
            },
            {
              "internalType": "uint256",
              "name": "amount",
              "type": "uint256"
            },
            {
              "internalType": "uint256",
              "name": "price",
              "type": "uint256"
            },
            {
              "internalType": "bool",
              "name": "isActive",
              "type": "bool"
            }
          ],
          "internalType": "struct CarbonMarketplace.Listing[]",
          "name": "",
          "type": "tuple[]"
        }
      ],
      "stateMutability": "view",
      "type": "function"
    },
    {
      "inputs": [
        {
          "internalType": "uint256",
          "name": "amount",
          "type": "uint256"
        },
        {
          "internalType": "uint256",
          "name": "price",
          "type": "uint256"
        }
      ],
      "name": "listCreditsForSale",
      "outputs": [],
      "stateMutability": "nonpayable",
      "type": "function"
    },
    {
      "inputs": [
        {
          "internalType": "uint256",
          "name": "",
          "type": "uint256"
        }
      ],
      "name": "listings",
      "outputs": [
        {
          "internalType": "uint256",
          "name": "id",
          "type": "uint256"
        },
        {
          "internalType": "address",
          "name": "seller",
          "type": "address"
        },
        {
          "internalType": "uint256",
          "name": "amount",
          "type": "uint256"
        },
        {
          "internalType": "uint256",
          "name": "price",
          "type": "uint256"
        },
        {
          "internalType": "bool",
          "name": "isActive",
          "type": "bool"
        }
      ],
      "stateMutability": "view",
      "type": "function"
    },
    {
      "inputs": [],
      "name": "nextListingId",
      "outputs": [
        {
          "internalType": "uint256",
          "name": "",
          "type": "uint256"
        }
      ],
      "stateMutability": "view",
      "type": "function"
    }
  ],
  "bytecode": "0x60806040523480156200001157600080fd5b50604051620015bc380380620015bc833981810160405281019062000037919062000129565b806000806101000a81548173ffffffffffffffffffffffffffffffffffffffff021916908373ffffffffffffffffffffffffffffffffffffffff16021790555033600160006101000a81548173ffffffffffffffffffffffffffffffffffffffff021916908373ffffffffffffffffffffffffffffffffffffffff160217905550506200015b565b600080fd5b600073ffffffffffffffffffffffffffffffffffffffff82169050919050565b6000620000f182620000c4565b9050919050565b6200010381620000e4565b81146200010f57600080fd5b50565b6000815190506200012381620000f8565b92915050565b600060208284031215620001425762000141620000bf565b5b6000620001528482850162000112565b91505092915050565b611451806200016b6000396000f3fe60806040526004361061007b5760003560e01c8063aaccf1ec1161004e578063aaccf1ec14610119578063ae73ccec14610144578063de74e57b1461016f578063f851a440146101b05761007b565b80630c4dfe3f1461008057806319adf6ad1461009c578063305a67a8146100c557806382a71ef2146100ee575b600080fd5b61009a60048036038101906100959190610b67565b6101db565b005b3480156100a857600080fd5b506100c360048036038101906100be9190610b94565b610477565b005b3480156100d157600080fd5b506100ec60048036038101906100e79190610b67565b610713565b005b3480156100fa57600080fd5b506101036108e3565b6040516101109190610c53565b60405180910390f35b34801561012557600080fd5b5061012e610907565b60405161013b9190610c7d565b60405180910390f35b34801561015057600080fd5b5061015961090d565b6040516101669190610dfa565b60405180910390f35b34801561017b57600080fd5b5061019660048036038101906101919190610b67565b610a5c565b6040516101a7959493929190610e3a565b60405180910390f35b3480156101bc57600080fd5b506101c5610abf565b6040516101d29190610e8d565b60405180910390f35b60006003600083815260200190815260200160002090508060040160009054906101000a900460ff16610243576040517f08c379a000000000000000000000000000000000000000000000000000000000815260040161023a90610f05565b60405180910390fd5b80600301543414610289576040517f08c379a000000000000000000000000000000000000000000000000000000000815260040161028090610f71565b60405180910390fd5b60008160040160006101000a81548160ff02191690831515021790555060008054906101000a900473ffffffffffffffffffffffffffffffffffffffff1673ffffffffffffffffffffffffffffffffffffffff166323b872dd8260010160009054906101000a900473ffffffffffffffffffffffffffffffffffffffff163384600201546040518463ffffffff1660e01b815260040161032b93929190610f91565b600060405180830381600087803b15801561034557600080fd5b505af1158015610359573d6000803e3d6000fd5b5050505060008160010160009054906101000a900473ffffffffffffffffffffffffffffffffffffffff1673ffffffffffffffffffffffffffffffffffffffff16346040516103a790610ff9565b60006040518083038185875af1925050503d80600081146103e4576040519150601f19603f3d011682016040523d82523d6000602084013e6103e9565b606091505b505090508061042d576040517f08c379a00000000000000000000000000000000000000000000000000000000081526004016104249061105a565b60405180910390fd5b7f9791971add465e345b4bdca900c99b8e4b219a257cf3cb84dc1fda2945d76b8e83338460020154856003015460405161046a949392919061107a565b60405180910390a1505050565b600082116104ba576040517f08c379a00000000000000000000000000000000000000000000000000000000081526004016104b19061110b565b60405180910390fd5b600081116104fd576040517f08c379a00000000000000000000000000000000000000000000000000000000081526004016104f490611177565b60405180910390fd5b8160008054906101000a900473ffffffffffffffffffffffffffffffffffffffff1673ffffffffffffffffffffffffffffffffffffffff166327e235e3336040518263ffffffff1660e01b81526004016105579190610e8d565b602060405180830381865afa158015610574573d6000803e3d6000fd5b505050506040513d601f19601f8201168201806040525081019061059891906111ac565b10156105d9576040517f08c379a00000000000000000000000000000000000000000000000000000000081526004016105d090611225565b60405180910390fd5b6040518060a0016040528060025481526020013373ffffffffffffffffffffffffffffffffffffffff168152602001838152602001828152602001600115158152506003600060025481526020019081526020016000206000820151816000015560208201518160010160006101000a81548173ffffffffffffffffffffffffffffffffffffffff021916908373ffffffffffffffffffffffffffffffffffffffff160217905550604082015181600201556060820151816003015560808201518160040160006101000a81548160ff0219169083151502179055509050507f12dc294b81a709d694b1337a350a12a00076c19a77a25aab67a5f0c07e0f164d6002543384846040516106ef949392919061107a565b60405180910390a16002600081548092919061070a90611274565b91905055505050565b60006003600083815260200190815260200160002090508060040160009054906101000a900460ff1661077b576040517f08c379a000000000000000000000000000000000000000000000000000000000815260040161077290611308565b60405180910390fd5b3373ffffffffffffffffffffffffffffffffffffffff168160010160009054906101000a900473ffffffffffffffffffffffffffffffffffffffff1673ffffffffffffffffffffffffffffffffffffffff1614806108265750600160009054906101000a900473ffffffffffffffffffffffffffffffffffffffff1673ffffffffffffffffffffffffffffffffffffffff163373ffffffffffffffffffffffffffffffffffffffff16145b610865576040517f08c379a000000000000000000000000000000000000000000000000000000000815260040161085c90611374565b60405180910390fd5b60008160040160006101000a81548160ff0219169083151502179055507f8e25282255ab31897df2b0456bb993ac7f84d376861aefd84901d2d63a7428a2828260010160009054906101000a900473ffffffffffffffffffffffffffffffffffffffff166040516108d7929190611394565b60405180910390a15050565b60008054906101000a900473ffffffffffffffffffffffffffffffffffffffff1681565b60025481565b6060600060025467ffffffffffffffff81111561092d5761092c6113bd565b5b60405190808252806020026020018201604052801561096657816020015b610953610ae5565b81526020019060019003908161094b5790505b50905060005b600254811015610a5457600360008281526020019081526020016000206040518060a0016040529081600082015481526020016001820160009054906101000a900473ffffffffffffffffffffffffffffffffffffffff1673ffffffffffffffffffffffffffffffffffffffff1673ffffffffffffffffffffffffffffffffffffffff16815260200160028201548152602001600382015481526020016004820160009054906101000a900460ff161515151581525050828281518110610a3657610a356113ec565b5b60200260200101819052508080610a4c90611274565b91505061096c565b508091505090565b60036020528060005260406000206000915090508060000154908060010160009054906101000a900473ffffffffffffffffffffffffffffffffffffffff16908060020154908060030154908060040160009054906101000a900460ff16905085565b600160009054906101000a900473ffffffffffffffffffffffffffffffffffffffff1681565b6040518060a0016040528060008152602001600073ffffffffffffffffffffffffffffffffffffffff16815260200160008152602001600081526020016000151581525090565b600080fd5b6000819050919050565b610b4481610b31565b8114610b4f57600080fd5b50565b600081359050610b6181610b3b565b92915050565b600060208284031215610b7d57610b7c610b2c565b5b6000610b8b84828501610b52565b91505092915050565b60008060408385031215610bab57610baa610b2c565b5b6000610bb985828601610b52565b9250506020610bca85828601610b52565b9150509250929050565b600073ffffffffffffffffffffffffffffffffffffffff82169050919050565b6000819050919050565b6000610c19610c14610c0f84610bd4565b610bf4565b610bd4565b9050919050565b6000610c2b82610bfe565b9050919050565b6000610c3d82610c20565b9050919050565b610c4d81610c32565b82525050565b6000602082019050610c686000830184610c44565b92915050565b610c7781610b31565b82525050565b6000602082019050610c926000830184610c6e565b92915050565b600081519050919050565b600082825260208201905092915050565b6000819050602082019050919050565b610ccd81610b31565b82525050565b6000610cde82610bd4565b9050919050565b610cee81610cd3565b82525050565b60008115159050919050565b610d0981610cf4565b82525050565b60a082016000820151610d256000850182610cc4565b506020820151610d386020850182610ce5565b506040820151610d4b6040850182610cc4565b506060820151610d5e6060850182610cc4565b506080820151610d716080850182610d00565b50505050565b6000610d838383610d0f565b60a08301905092915050565b6000602082019050919050565b6000610da782610c98565b610db18185610ca3565b9350610dbc83610cb4565b8060005b83811015610ded578151610dd48882610d77565b9750610ddf83610d8f565b925050600181019050610dc0565b5085935050505092915050565b60006020820190508181036000830152610e148184610d9c565b905092915050565b610e2581610cd3565b82525050565b610e3481610cf4565b82525050565b600060a082019050610e4f6000830188610c6e565b610e5c6020830187610e1c565b610e696040830186610c6e565b610e766060830185610c6e565b610e836080830184610e2b565b9695505050505050565b6000602082019050610ea26000830184610e1c565b92915050565b600082825260208201905092915050565b7f4c697374696e67206e6f74206163746976650000000000000000000000000000600082015250565b6000610eef601283610ea8565b9150610efa82610eb9565b602082019050919050565b60006020820190508181036000830152610f1e81610ee2565b9050919050565b7f57726f6e672045544820616d6f756e7400000000000000000000000000000000600082015250565b6000610f5b601083610ea8565b9150610f6682610f25565b602082019050919050565b60006020820190508181036000830152610f8a81610f4e565b9050919050565b6000606082019050610fa66000830186610e1c565b610fb36020830185610e1c565b610fc06040830184610c6e565b949350505050565b600081905092915050565b50565b6000610fe3600083610fc8565b9150610fee82610fd3565b600082019050919050565b600061100482610fd6565b9150819050919050565b7f455448207472616e73666572206661696c656400000000000000000000000000600082015250565b6000611044601383610ea8565b915061104f8261100e565b602082019050919050565b6000602082019050818103600083015261107381611037565b9050919050565b600060808201905061108f6000830187610c6e565b61109c6020830186610e1c565b6110a96040830185610c6e565b6110b66060830184610c6e565b95945050505050565b7f416d6f756e74206d757374206265203e20300000000000000000000000000000600082015250565b60006110f5601283610ea8565b9150611100826110bf565b602082019050919050565b60006020820190508181036000830152611124816110e8565b9050919050565b7f5072696365206d757374206265203e2030000000000000000000000000000000600082015250565b6000611161601183610ea8565b915061116c8261112b565b602082019050919050565b6000602082019050818103600083015261119081611154565b9050919050565b6000815190506111a681610b3b565b92915050565b6000602082840312156111c2576111c1610b2c565b5b60006111d084828501611197565b91505092915050565b7f4e6f7420656e6f75676820637265646974730000000000000000000000000000600082015250565b600061120f601283610ea8565b915061121a826111d9565b602082019050919050565b6000602082019050818103600083015261123e81611202565b9050919050565b7f4e487b7100000000000000000000000000000000000000000000000000000000600052601160045260246000fd5b600061127f82610b31565b91507fffffffffffffffffffffffffffffffffffffffffffffffffffffffffffffffff82036112b1576112b0611245565b5b600182019050919050565b7f416c726561647920696e61637469766500000000000000000000000000000000600082015250565b60006112f2601083610ea8565b91506112fd826112bc565b602082019050919050565b60006020820190508181036000830152611321816112e5565b9050919050565b7f4e6f7420616c6c6f776564000000000000000000000000000000000000000000600082015250565b600061135e600b83610ea8565b915061136982611328565b602082019050919050565b6000602082019050818103600083015261138d81611351565b9050919050565b60006040820190506113a96000830185610c6e565b6113b66020830184610e1c565b9392505050565b7f4e487b7100000000000000000000000000000000000000000000000000000000600052604160045260246000fd5b7f4e487b7100000000000000000000000000000000000000000000000000000000600052603260045260246000fdfea264697066735822122071875825818ab82cf9a6b1319584675c4fdcccaaa8a564fb81182fd54151d2f364736f6c63430008140033",
  "linkReferences": {},
  "deployedLinkReferences": {}
}